{
  "transactions": [
    {
      "hash": "0xefa1af2ca90c0a1499b6a661038a7a540c9aee8190584d2a9c736770d5847145",
      "transactionType": "CALL",
      "contractName": null,
      "contractAddress": "0xb53cd2e6a71e88c4df5863cd8c257077cd8c1aa2",
      "function": "approve(address,uint256)",
      "arguments": [
        "0xb89fe53AbB27B9EeF58525488472A1148c75C73a",
        "100000000"
      ],
      "transaction": {
        "from": "0x8a387ef9acc800eea39e3e6a2d92694db6c813ac",
        "to": "0xb53cd2e6a71e88c4df5863cd8c257077cd8c1aa2",
        "gas": "0x8d72",
        "value": "0x0",
        "input": "0x095ea7b3000000000000000000000000b89fe53abb27b9eef58525488472a1148c75c73a0000000000000000000000000000000000000000000000000000000005f5e100",
        "nonce": "0x19",
        "chainId": "0x279f"
      },
      "additionalContracts": [],
      "isFixedGasLimit": false
    },
    {
      "hash": "0xf33f665a826a5241574ebc7cc7af77426135a05df8336afce12d2a8e04f86450",
      "transactionType": "CALL",
      "contractName": null,
      "contractAddress": "0xd615074c2603336fa0da8af44b5ccb9d9c0b2f9c",
      "function": "approve(address,uint256)",
      "arguments": [
        "0xb89fe53AbB27B9EeF58525488472A1148c75C73a",
        "10000000000000000000"
      ],
      "transaction": {
        "from": "0x8a387ef9acc800eea39e3e6a2d92694db6c813ac",
        "to": "0xd615074c2603336fa0da8af44b5ccb9d9c0b2f9c",
        "gas": "0x9777",
        "value": "0x0",
        "input": "0x095ea7b3000000000000000000000000b89fe53abb27b9eef58525488472a1148c75c73a0000000000000000000000000000000000000000000000008ac7230489e80000",
        "nonce": "0x1a",
        "chainId": "0x279f"
      },
      "additionalContracts": [],
      "isFixedGasLimit": false
    },
    {
      "hash": "0xd0d2d4d9531f14a527600a470f7259320261f341e41686bba7657c023751240f",
      "transactionType": "CALL",
      "contractName": null,
      "contractAddress": "0xb89fe53abb27b9eef58525488472a1148c75c73a",
      "function": "joinWithFaith(uint256)",
      "arguments": [
        "10000000000000000000"
      ],
      "transaction": {
        "from": "0x8a387ef9acc800eea39e3e6a2d92694db6c813ac",
        "to": "0xb89fe53abb27b9eef58525488472a1148c75c73a",
        "gas": "0x41c80",
        "value": "0x0",
        "input": "0x97b005700000000000000000000000000000000000000000000000008ac7230489e80000",
        "nonce": "0x1b",
        "chainId": "0x279f"
      },
      "additionalContracts": [],
      "isFixedGasLimit": false
    }
  ],
  "receipts": [
    {
      "status": "0x1",
      "cumulativeGasUsed": "0x86687",
      "logs": [
        {
          "address": "0xb53cd2e6a71e88c4df5863cd8c257077cd8c1aa2",
          "topics": [
            "0x8c5be1e5ebec7d5bd14f71427d1e84f3dd0314c0f7b2291e5b200ac8c7c3b925",
            "0x0000000000000000000000008a387ef9acc800eea39e3e6a2d92694db6c813ac",
            "0x000000000000000000000000b89fe53abb27b9eef58525488472a1148c75c73a"
          ],
          "data": "0x0000000000000000000000000000000000000000000000000000000005f5e100",
          "blockHash": "0xa8755ea5a8c1207ae95f9be3e62a58b6d22daf2f70aba959de4ffc61d2238b82",
          "blockNumber": "0xa37bac",
          "blockTimestamp": "0x6983dbbb",
          "transactionHash": "0xefa1af2ca90c0a1499b6a661038a7a540c9aee8190584d2a9c736770d5847145",
          "transactionIndex": "0x3",
          "logIndex": "0xb",
          "removed": false
        }
      ],
      "logsBloom": "0x00000000002000000000000000000000000000000000000000000000000000000000000000000000000000000000000000000000000000000000000000200000000008000000000000000000000000000000000000000000000000000000000800002000000000000000000000800000000000000000000000000000000000000000000000000000000000000000000000000000000000000000000000000000020000000000000000000000000000200000000000002000000000000000000000000000000000000000000000000000000000000000000800000000000000000010000000000000000000000000000000000000008000000000000000000000",
      "type": "0x2",
      "transactionHash": "0xefa1af2ca90c0a1499b6a661038a7a540c9aee8190584d2a9c736770d5847145",
      "transactionIndex": "0x3",
      "blockHash": "0xa8755ea5a8c1207ae95f9be3e62a58b6d22daf2f70aba959de4ffc61d2238b82",
      "blockNumber": "0xa37bac",
      "gasUsed": "0x8d72",
      "effectiveGasPrice": "0x17fb474601",
      "from": "0x8a387ef9acc800eea39e3e6a2d92694db6c813ac",
      "to": "0xb53cd2e6a71e88c4df5863cd8c257077cd8c1aa2",
      "contractAddress": null
    },
    {
      "status": "0x1",
      "cumulativeGasUsed": "0x4083b",
      "logs": [
        {
          "address": "0xd615074c2603336fa0da8af44b5ccb9d9c0b2f9c",
          "topics": [
            "0x8c5be1e5ebec7d5bd14f71427d1e84f3dd0314c0f7b2291e5b200ac8c7c3b925",
            "0x0000000000000000000000008a387ef9acc800eea39e3e6a2d92694db6c813ac",
            "0x000000000000000000000000b89fe53abb27b9eef58525488472a1148c75c73a"
          ],
          "data": "0x0000000000000000000000000000000000000000000000008ac7230489e80000",
          "blockHash": "0xa480fa6b133e0e7f3a4abcd0265fe069e36778ee54cfb267039012dc088816c6",
          "blockNumber": "0xa37bb2",
          "blockTimestamp": "0x6983dbbe",
          "transactionHash": "0xf33f665a826a5241574ebc7cc7af77426135a05df8336afce12d2a8e04f86450",
          "transactionIndex": "0x2",
          "logIndex": "0x5",
          "removed": false
        }
      ],
      "logsBloom": "0x00000000002000000000000000000000000000000000400000000000000000000000000000000000000000000000000000000000000000000000000000200000000008000000000000000000000000000000000000000000000000000000000000002000000000000000000000800000000000000000000000000000000000000000000000000000000000000000000000000000000000000000000000000000020000000000000000000000000000200000000000000000000000004000000000000000000000000000000000000000000000000000000000000000000000000010000000000000000000000000000000000000008000080000000000000000",
      "type": "0x2",
      "transactionHash": "0xf33f665a826a5241574ebc7cc7af77426135a05df8336afce12d2a8e04f86450",
      "transactionIndex": "0x2",
      "blockHash": "0xa480fa6b133e0e7f3a4abcd0265fe069e36778ee54cfb267039012dc088816c6",
      "blockNumber": "0xa37bb2",
      "gasUsed": "0x9777",
      "effectiveGasPrice": "0x17fb474601",
      "from": "0x8a387ef9acc800eea39e3e6a2d92694db6c813ac",
      "to": "0xd615074c2603336fa0da8af44b5ccb9d9c0b2f9c",
      "contractAddress": null
    }
  ],
  "libraries": [],
  "pending": [],
  "returns": {},
  "timestamp": 1770249154,
  "chain": 10143,
  "commit": "ca47243"
}