{
  "transactions": [
    {
      "hash": "0x907aab7dde6f3846da745afa77ab7964a2894bcf3674b03a1bfcaf3787a55485",
      "transactionType": "CALL",
      "contractName": null,
      "contractAddress": "0xb53cd2e6a71e88c4df5863cd8c257077cd8c1aa2",
      "function": "approve(address,uint256)",
      "arguments": [
        "0xb89fe53AbB27B9EeF58525488472A1148c75C73a",
        "100000000"
      ],
      "transaction": {
        "from": "0x8a387ef9acc800eea39e3e6a2d92694db6c813ac",
        "to": "0xb53cd2e6a71e88c4df5863cd8c257077cd8c1aa2",
        "gas": "0xf8d1",
        "value": "0x0",
        "input": "0x095ea7b3000000000000000000000000b89fe53abb27b9eef58525488472a1148c75c73a0000000000000000000000000000000000000000000000000000000005f5e100",
        "nonce": "0x16",
        "chainId": "0x279f"
      },
      "additionalContracts": [],
      "isFixedGasLimit": false
    },
    {
      "hash": "0x4b53bcaa78d22a83dbb8f1408edcb97cc2a2b31cebf5baf3403ccb6905a2797c",
      "transactionType": "CALL",
      "contractName": null,
      "contractAddress": "0xd615074c2603336fa0da8af44b5ccb9d9c0b2f9c",
      "function": "approve(address,uint256)",
      "arguments": [
        "0xb89fe53AbB27B9EeF58525488472A1148c75C73a",
        "10000000000000000000"
      ],
      "transaction": {
        "from": "0x8a387ef9acc800eea39e3e6a2d92694db6c813ac",
        "to": "0xd615074c2603336fa0da8af44b5ccb9d9c0b2f9c",
        "gas": "0xfa6a",
        "value": "0x0",
        "input": "0x095ea7b3000000000000000000000000b89fe53abb27b9eef58525488472a1148c75c73a0000000000000000000000000000000000000000000000008ac7230489e80000",
        "nonce": "0x17",
        "chainId": "0x279f"
      },
      "additionalContracts": [],
      "isFixedGasLimit": false
    },
    {
      "hash": "0xdfbd45991740d2808e9b9e92e4f90f88555f87d4a8df2faa35871d415ba2c886",
      "transactionType": "CALL",
      "contractName": null,
      "contractAddress": "0xb89fe53abb27b9eef58525488472a1148c75c73a",
      "function": "joinWithFaith(uint256)",
      "arguments": [
        "10000000000000000000"
      ],
      "transaction": {
        "from": "0x8a387ef9acc800eea39e3e6a2d92694db6c813ac",
        "to": "0xb89fe53abb27b9eef58525488472a1148c75c73a",
        "gas": "0x41c80",
        "value": "0x0",
        "input": "0x97b005700000000000000000000000000000000000000000000000008ac7230489e80000",
        "nonce": "0x18",
        "chainId": "0x279f"
      },
      "additionalContracts": [],
      "isFixedGasLimit": false
    }
  ],
  "receipts": [
    {
      "status": "0x1",
      "cumulativeGasUsed": "0x469c3",
      "logs": [
        {
          "address": "0xb53cd2e6a71e88c4df5863cd8c257077cd8c1aa2",
          "topics": [
            "0x8c5be1e5ebec7d5bd14f71427d1e84f3dd0314c0f7b2291e5b200ac8c7c3b925",
            "0x0000000000000000000000008a387ef9acc800eea39e3e6a2d92694db6c813ac",
            "0x000000000000000000000000b89fe53abb27b9eef58525488472a1148c75c73a"
          ],
          "data": "0x0000000000000000000000000000000000000000000000000000000005f5e100",
          "blockHash": "0x63e65f7a10d06c5ddb6bc698b19777dc35b0f917c3f005e024d0361b070e73b8",
          "blockNumber": "0xa377ff",
          "blockTimestamp": "0x6983da38",
          "transactionHash": "0x907aab7dde6f3846da745afa77ab7964a2894bcf3674b03a1bfcaf3787a55485",
          "transactionIndex": "0x2",
          "logIndex": "0x5",
          "removed": false
        }
      ],
      "logsBloom": "0x00000000002000000000000000000000000000000000000000000000000000000000000000000000000000000000000000000000000000000000000000200000000008000000000000000000000000000000000000000000000000000000000800002000000000000000000000800000000000000000000000000000000000000000000000000000000000000000000000000000000000000000000000000000020000000000000000000000000000200000000000002000000000000000000000000000000000000000000000000000000000000000000800000000000000000010000000000000000000000000000000000000008000000000000000000000",
      "type": "0x2",
      "transactionHash": "0x907aab7dde6f3846da745afa77ab7964a2894bcf3674b03a1bfcaf3787a55485",
      "transactionIndex": "0x2",
      "blockHash": "0x63e65f7a10d06c5ddb6bc698b19777dc35b0f917c3f005e024d0361b070e73b8",
      "blockNumber": "0xa377ff",
      "gasUsed": "0xf8d1",
      "effectiveGasPrice": "0x17fb474601",
      "from": "0x8a387ef9acc800eea39e3e6a2d92694db6c813ac",
      "to": "0xb53cd2e6a71e88c4df5863cd8c257077cd8c1aa2",
      "contractAddress": null
    },
    {
      "status": "0x1",
      "cumulativeGasUsed": "0x5642d",
      "logs": [
        {
          "address": "0xd615074c2603336fa0da8af44b5ccb9d9c0b2f9c",
          "topics": [
            "0x8c5be1e5ebec7d5bd14f71427d1e84f3dd0314c0f7b2291e5b200ac8c7c3b925",
            "0x0000000000000000000000008a387ef9acc800eea39e3e6a2d92694db6c813ac",
            "0x000000000000000000000000b89fe53abb27b9eef58525488472a1148c75c73a"
          ],
          "data": "0x0000000000000000000000000000000000000000000000008ac7230489e80000",
          "blockHash": "0x63e65f7a10d06c5ddb6bc698b19777dc35b0f917c3f005e024d0361b070e73b8",
          "blockNumber": "0xa377ff",
          "blockTimestamp": "0x6983da38",
          "transactionHash": "0x4b53bcaa78d22a83dbb8f1408edcb97cc2a2b31cebf5baf3403ccb6905a2797c",
          "transactionIndex": "0x3",
          "logIndex": "0x6",
          "removed": false
        }
      ],
      "logsBloom": "0x00000000002000000000000000000000000000000000400000000000000000000000000000000000000000000000000000000000000000000000000000200000000008000000000000000000000000000000000000000000000000000000000000002000000000000000000000800000000000000000000000000000000000000000000000000000000000000000000000000000000000000000000000000000020000000000000000000000000000200000000000000000000000004000000000000000000000000000000000000000000000000000000000000000000000000010000000000000000000000000000000000000008000080000000000000000",
      "type": "0x2",
      "transactionHash": "0x4b53bcaa78d22a83dbb8f1408edcb97cc2a2b31cebf5baf3403ccb6905a2797c",
      "transactionIndex": "0x3",
      "blockHash": "0x63e65f7a10d06c5ddb6bc698b19777dc35b0f917c3f005e024d0361b070e73b8",
      "blockNumber": "0xa377ff",
      "gasUsed": "0xfa6a",
      "effectiveGasPrice": "0x17fb474601",
      "from": "0x8a387ef9acc800eea39e3e6a2d92694db6c813ac",
      "to": "0xd615074c2603336fa0da8af44b5ccb9d9c0b2f9c",
      "contractAddress": null
    }
  ],
  "libraries": [],
  "pending": [],
  "returns": {},
  "timestamp": 1770248762,
  "chain": 10143,
  "commit": "ca47243"
}